{
  "contractName": "NFT",
  "abi": [
    {
      "inputs": [
        {
          "internalType": "string",
          "name": "name",
          "type": "string"
        },
        {
          "internalType": "string",
          "name": "symbol",
          "type": "string"
        }
      ],
      "stateMutability": "nonpayable",
      "type": "constructor"
    },
    {
      "inputs": [
        {
          "internalType": "address",
          "name": "sender",
          "type": "address"
        },
        {
          "internalType": "uint256",
          "name": "tokenId",
          "type": "uint256"
        },
        {
          "internalType": "address",
          "name": "owner",
          "type": "address"
        }
      ],
      "name": "ERC721IncorrectOwner",
      "type": "error"
    },
    {
      "inputs": [
        {
          "internalType": "address",
          "name": "operator",
          "type": "address"
        },
        {
          "internalType": "uint256",
          "name": "tokenId",
          "type": "uint256"
        }
      ],
      "name": "ERC721InsufficientApproval",
      "type": "error"
    },
    {
      "inputs": [
        {
          "internalType": "address",
          "name": "approver",
          "type": "address"
        }
      ],
      "name": "ERC721InvalidApprover",
      "type": "error"
    },
    {
      "inputs": [
        {
          "internalType": "address",
          "name": "operator",
          "type": "address"
        }
      ],
      "name": "ERC721InvalidOperator",
      "type": "error"
    },
    {
      "inputs": [
        {
          "internalType": "address",
          "name": "owner",
          "type": "address"
        }
      ],
      "name": "ERC721InvalidOwner",
      "type": "error"
    },
    {
      "inputs": [
        {
          "internalType": "address",
          "name": "receiver",
          "type": "address"
        }
      ],
      "name": "ERC721InvalidReceiver",
      "type": "error"
    },
    {
      "inputs": [
        {
          "internalType": "address",
          "name": "sender",
          "type": "address"
        }
      ],
      "name": "ERC721InvalidSender",
      "type": "error"
    },
    {
      "inputs": [
        {
          "internalType": "uint256",
          "name": "tokenId",
          "type": "uint256"
        }
      ],
      "name": "ERC721NonexistentToken",
      "type": "error"
    },
    {
      "inputs": [
        {
          "internalType": "address",
          "name": "owner",
          "type": "address"
        }
      ],
      "name": "OwnableInvalidOwner",
      "type": "error"
    },
    {
      "inputs": [
        {
          "internalType": "address",
          "name": "account",
          "type": "address"
        }
      ],
      "name": "OwnableUnauthorizedAccount",
      "type": "error"
    },
    {
      "anonymous": false,
      "inputs": [
        {
          "indexed": true,
          "internalType": "address",
          "name": "owner",
          "type": "address"
        },
        {
          "indexed": true,
          "internalType": "address",
          "name": "approved",
          "type": "address"
        },
        {
          "indexed": true,
          "internalType": "uint256",
          "name": "tokenId",
          "type": "uint256"
        }
      ],
      "name": "Approval",
      "type": "event"
    },
    {
      "anonymous": false,
      "inputs": [
        {
          "indexed": true,
          "internalType": "address",
          "name": "owner",
          "type": "address"
        },
        {
          "indexed": true,
          "internalType": "address",
          "name": "operator",
          "type": "address"
        },
        {
          "indexed": false,
          "internalType": "bool",
          "name": "approved",
          "type": "bool"
        }
      ],
      "name": "ApprovalForAll",
      "type": "event"
    },
    {
      "anonymous": false,
      "inputs": [
        {
          "indexed": false,
          "internalType": "uint256",
          "name": "_fromTokenId",
          "type": "uint256"
        },
        {
          "indexed": false,
          "internalType": "uint256",
          "name": "_toTokenId",
          "type": "uint256"
        }
      ],
      "name": "BatchMetadataUpdate",
      "type": "event"
    },
    {
      "anonymous": false,
      "inputs": [
        {
          "indexed": false,
          "internalType": "uint256",
          "name": "_tokenId",
          "type": "uint256"
        }
      ],
      "name": "MetadataUpdate",
      "type": "event"
    },
    {
      "anonymous": false,
      "inputs": [
        {
          "indexed": true,
          "internalType": "address",
          "name": "previousOwner",
          "type": "address"
        },
        {
          "indexed": true,
          "internalType": "address",
          "name": "newOwner",
          "type": "address"
        }
      ],
      "name": "OwnershipTransferred",
      "type": "event"
    },
    {
      "anonymous": false,
      "inputs": [
        {
          "indexed": true,
          "internalType": "address",
          "name": "from",
          "type": "address"
        },
        {
          "indexed": true,
          "internalType": "address",
          "name": "to",
          "type": "address"
        },
        {
          "indexed": true,
          "internalType": "uint256",
          "name": "tokenId",
          "type": "uint256"
        }
      ],
      "name": "Transfer",
      "type": "event"
    },
    {
      "inputs": [
        {
          "internalType": "address",
          "name": "to",
          "type": "address"
        },
        {
          "internalType": "uint256",
          "name": "tokenId",
          "type": "uint256"
        }
      ],
      "name": "approve",
      "outputs": [],
      "stateMutability": "nonpayable",
      "type": "function"
    },
    {
      "inputs": [
        {
          "internalType": "address",
          "name": "owner",
          "type": "address"
        }
      ],
      "name": "balanceOf",
      "outputs": [
        {
          "internalType": "uint256",
          "name": "",
          "type": "uint256"
        }
      ],
      "stateMutability": "view",
      "type": "function"
    },
    {
      "inputs": [
        {
          "internalType": "uint256",
          "name": "tokenId",
          "type": "uint256"
        }
      ],
      "name": "getApproved",
      "outputs": [
        {
          "internalType": "address",
          "name": "",
          "type": "address"
        }
      ],
      "stateMutability": "view",
      "type": "function"
    },
    {
      "inputs": [
        {
          "internalType": "address",
          "name": "owner",
          "type": "address"
        },
        {
          "internalType": "address",
          "name": "operator",
          "type": "address"
        }
      ],
      "name": "isApprovedForAll",
      "outputs": [
        {
          "internalType": "bool",
          "name": "",
          "type": "bool"
        }
      ],
      "stateMutability": "view",
      "type": "function"
    },
    {
      "inputs": [],
      "name": "name",
      "outputs": [
        {
          "internalType": "string",
          "name": "",
          "type": "string"
        }
      ],
      "stateMutability": "view",
      "type": "function"
    },
    {
      "inputs": [],
      "name": "owner",
      "outputs": [
        {
          "internalType": "address",
          "name": "",
          "type": "address"
        }
      ],
      "stateMutability": "view",
      "type": "function"
    },
    {
      "inputs": [
        {
          "internalType": "uint256",
          "name": "tokenId",
          "type": "uint256"
        }
      ],
      "name": "ownerOf",
      "outputs": [
        {
          "internalType": "address",
          "name": "",
          "type": "address"
        }
      ],
      "stateMutability": "view",
      "type": "function"
    },
    {
      "inputs": [],
      "name": "renounceOwnership",
      "outputs": [],
      "stateMutability": "nonpayable",
      "type": "function"
    },
    {
      "inputs": [
        {
          "internalType": "address",
          "name": "from",
          "type": "address"
        },
        {
          "internalType": "address",
          "name": "to",
          "type": "address"
        },
        {
          "internalType": "uint256",
          "name": "tokenId",
          "type": "uint256"
        }
      ],
      "name": "safeTransferFrom",
      "outputs": [],
      "stateMutability": "nonpayable",
      "type": "function"
    },
    {
      "inputs": [
        {
          "internalType": "address",
          "name": "from",
          "type": "address"
        },
        {
          "internalType": "address",
          "name": "to",
          "type": "address"
        },
        {
          "internalType": "uint256",
          "name": "tokenId",
          "type": "uint256"
        },
        {
          "internalType": "bytes",
          "name": "data",
          "type": "bytes"
        }
      ],
      "name": "safeTransferFrom",
      "outputs": [],
      "stateMutability": "nonpayable",
      "type": "function"
    },
    {
      "inputs": [
        {
          "internalType": "address",
          "name": "operator",
          "type": "address"
        },
        {
          "internalType": "bool",
          "name": "approved",
          "type": "bool"
        }
      ],
      "name": "setApprovalForAll",
      "outputs": [],
      "stateMutability": "nonpayable",
      "type": "function"
    },
    {
      "inputs": [
        {
          "internalType": "bytes4",
          "name": "interfaceId",
          "type": "bytes4"
        }
      ],
      "name": "supportsInterface",
      "outputs": [
        {
          "internalType": "bool",
          "name": "",
          "type": "bool"
        }
      ],
      "stateMutability": "view",
      "type": "function"
    },
    {
      "inputs": [],
      "name": "symbol",
      "outputs": [
        {
          "internalType": "string",
          "name": "",
          "type": "string"
        }
      ],
      "stateMutability": "view",
      "type": "function"
    },
    {
      "inputs": [
        {
          "internalType": "uint256",
          "name": "tokenId",
          "type": "uint256"
        }
      ],
      "name": "tokenURI",
      "outputs": [
        {
          "internalType": "string",
          "name": "",
          "type": "string"
        }
      ],
      "stateMutability": "view",
      "type": "function"
    },
    {
      "inputs": [
        {
          "internalType": "address",
          "name": "from",
          "type": "address"
        },
        {
          "internalType": "address",
          "name": "to",
          "type": "address"
        },
        {
          "internalType": "uint256",
          "name": "tokenId",
          "type": "uint256"
        }
      ],
      "name": "transferFrom",
      "outputs": [],
      "stateMutability": "nonpayable",
      "type": "function"
    },
    {
      "inputs": [
        {
          "internalType": "address",
          "name": "newOwner",
          "type": "address"
        }
      ],
      "name": "transferOwnership",
      "outputs": [],
      "stateMutability": "nonpayable",
      "type": "function"
    },
    {
      "inputs": [
        {
          "internalType": "string",
          "name": "tokenURI",
          "type": "string"
        },
        {
          "internalType": "uint256",
          "name": "cost",
          "type": "uint256"
        },
        {
          "internalType": "address",
          "name": "patient",
          "type": "address"
        }
      ],
      "name": "generatePrescription",
      "outputs": [
        {
          "internalType": "uint256",
          "name": "",
          "type": "uint256"
        }
      ],
      "stateMutability": "nonpayable",
      "type": "function"
    },
    {
      "inputs": [
        {
          "internalType": "uint256",
          "name": "tokenId",
          "type": "uint256"
        }
      ],
      "name": "costOf",
      "outputs": [
        {
          "internalType": "uint256",
          "name": "",
          "type": "uint256"
        }
      ],
      "stateMutability": "view",
      "type": "function"
    },
    {
      "inputs": [
        {
          "internalType": "uint256",
          "name": "tokenId",
          "type": "uint256"
        }
      ],
      "name": "patientOf",
      "outputs": [
        {
          "internalType": "address",
          "name": "",
          "type": "address"
        }
      ],
      "stateMutability": "view",
      "type": "function"
    },
    {
      "inputs": [
        {
          "internalType": "uint256",
          "name": "tokenId",
          "type": "uint256"
        }
      ],
      "name": "transferPrescription",
      "outputs": [],
      "stateMutability": "payable",
      "type": "function"
    }
  ],
  "bytecode": "0x608060405234801562000010575f80fd5b506040516200332e3803806200332e83398181016040528101906200003691906200033a565b338282815f9081620000499190620005f4565b5080600190816200005b9190620005f4565b5050505f73ffffffffffffffffffffffffffffffffffffffff168173ffffffffffffffffffffffffffffffffffffffff1603620000d1575f6040517f1e4fbdf7000000000000000000000000000000000000000000000000000000008152600401620000c891906200071b565b60405180910390fd5b620000e281620000f260201b60201c565b505f600881905550505062000736565b5f60075f9054906101000a900473ffffffffffffffffffffffffffffffffffffffff1690508160075f6101000a81548173ffffffffffffffffffffffffffffffffffffffff021916908373ffffffffffffffffffffffffffffffffffffffff1602179055508173ffffffffffffffffffffffffffffffffffffffff168173ffffffffffffffffffffffffffffffffffffffff167f8be0079c531659141344cd1fd0a4f28419497f9722a3daafe3b4186f6b6457e060405160405180910390a35050565b5f604051905090565b5f80fd5b5f80fd5b5f80fd5b5f80fd5b5f601f19601f8301169050919050565b7f4e487b71000000000000000000000000000000000000000000000000000000005f52604160045260245ffd5b6200021682620001ce565b810181811067ffffffffffffffff82111715620002385762000237620001de565b5b80604052505050565b5f6200024c620001b5565b90506200025a82826200020b565b919050565b5f67ffffffffffffffff8211156200027c576200027b620001de565b5b6200028782620001ce565b9050602081019050919050565b5f5b83811015620002b357808201518184015260208101905062000296565b5f8484015250505050565b5f620002d4620002ce846200025f565b62000241565b905082815260208101848484011115620002f357620002f2620001ca565b5b6200030084828562000294565b509392505050565b5f82601f8301126200031f576200031e620001c6565b5b815162000331848260208601620002be565b91505092915050565b5f8060408385031215620003535762000352620001be565b5b5f83015167ffffffffffffffff811115620003735762000372620001c2565b5b620003818582860162000308565b925050602083015167ffffffffffffffff811115620003a557620003a4620001c2565b5b620003b38582860162000308565b9150509250929050565b5f81519050919050565b7f4e487b71000000000000000000000000000000000000000000000000000000005f52602260045260245ffd5b5f60028204905060018216806200040c57607f821691505b602082108103620004225762000421620003c7565b5b50919050565b5f819050815f5260205f209050919050565b5f6020601f8301049050919050565b5f82821b905092915050565b5f60088302620004867fffffffffffffffffffffffffffffffffffffffffffffffffffffffffffffffff8262000449565b62000492868362000449565b95508019841693508086168417925050509392505050565b5f819050919050565b5f819050919050565b5f620004dc620004d6620004d084620004aa565b620004b3565b620004aa565b9050919050565b5f819050919050565b620004f783620004bc565b6200050f6200050682620004e3565b84845462000455565b825550505050565b5f90565b6200052562000517565b62000532818484620004ec565b505050565b5b8181101562000559576200054d5f826200051b565b60018101905062000538565b5050565b601f821115620005a857620005728162000428565b6200057d846200043a565b810160208510156200058d578190505b620005a56200059c856200043a565b83018262000537565b50505b505050565b5f82821c905092915050565b5f620005ca5f1984600802620005ad565b1980831691505092915050565b5f620005e48383620005b9565b9150826002028217905092915050565b620005ff82620003bd565b67ffffffffffffffff8111156200061b576200061a620001de565b5b620006278254620003f4565b620006348282856200055d565b5f60209050601f8311600181146200066a575f841562000655578287015190505b620006618582620005d7565b865550620006d0565b601f1984166200067a8662000428565b5f5b82811015620006a3578489015182556001820191506020850194506020810190506200067c565b86831015620006c35784890151620006bf601f891682620005b9565b8355505b6001600288020188555050505b505050505050565b5f73ffffffffffffffffffffffffffffffffffffffff82169050919050565b5f6200070382620006d8565b9050919050565b6200071581620006f7565b82525050565b5f602082019050620007305f8301846200070a565b92915050565b612bea80620007445f395ff3fe60806040526004361061011e575f3560e01c80638da5cb5b1161009f578063bff0d9f011610063578063bff0d9f0146103c6578063c87b56dd14610402578063e985e9c51461043e578063f2fde38b1461047a578063fd326592146104a25761011e565b80638da5cb5b146102e657806395d89b4114610310578063993273671461033a578063a22cb46514610376578063b88d4fde1461039e5761011e565b806342842e0e116100e657806342842e0e146102145780636352211e1461023c57806370a0823114610278578063715018a6146102b457806375dc3fdd146102ca5761011e565b806301ffc9a71461012257806306fdde031461015e578063081812fc14610188578063095ea7b3146101c457806323b872dd146101ec575b5f80fd5b34801561012d575f80fd5b5061014860048036038101906101439190611f94565b6104de565b6040516101559190611fd9565b60405180910390f35b348015610169575f80fd5b5061017261053e565b60405161017f919061207c565b60405180910390f35b348015610193575f80fd5b506101ae60048036038101906101a991906120cf565b6105cd565b6040516101bb9190612139565b60405180910390f35b3480156101cf575f80fd5b506101ea60048036038101906101e5919061217c565b6105e8565b005b3480156101f7575f80fd5b50610212600480360381019061020d91906121ba565b6105fe565b005b34801561021f575f80fd5b5061023a600480360381019061023591906121ba565b6106fd565b005b348015610247575f80fd5b50610262600480360381019061025d91906120cf565b61071c565b60405161026f9190612139565b60405180910390f35b348015610283575f80fd5b5061029e6004803603810190610299919061220a565b61072d565b6040516102ab9190612244565b60405180910390f35b3480156102bf575f80fd5b506102c86107e3565b005b6102e460048036038101906102df91906120cf565b6107f6565b005b3480156102f1575f80fd5b506102fa61097f565b6040516103079190612139565b60405180910390f35b34801561031b575f80fd5b506103246109a7565b604051610331919061207c565b60405180910390f35b348015610345575f80fd5b50610360600480360381019061035b9190612389565b610a37565b60405161036d9190612244565b60405180910390f35b348015610381575f80fd5b5061039c6004803603810190610397919061241f565b610ae7565b005b3480156103a9575f80fd5b506103c460048036038101906103bf91906124fb565b610afd565b005b3480156103d1575f80fd5b506103ec60048036038101906103e791906120cf565b610b22565b6040516103f99190612139565b60405180910390f35b34801561040d575f80fd5b50610428600480360381019061042391906120cf565b610b5e565b604051610435919061207c565b60405180910390f35b348015610449575f80fd5b50610464600480360381019061045f919061257b565b610c69565b6040516104719190611fd9565b60405180910390f35b348015610485575f80fd5b506104a0600480360381019061049b919061220a565b610cf7565b005b3480156104ad575f80fd5b506104c860048036038101906104c391906120cf565b610d7b565b6040516104d59190612244565b60405180910390f35b5f634906490660e01b7bffffffffffffffffffffffffffffffffffffffffffffffffffffffff1916827bffffffffffffffffffffffffffffffffffffffffffffffffffffffff19161480610537575061053682610d97565b5b9050919050565b60605f805461054c906125e6565b80601f0160208091040260200160405190810160405280929190818152602001828054610578906125e6565b80156105c35780601f1061059a576101008083540402835291602001916105c3565b820191905f5260205f20905b8154815290600101906020018083116105a657829003601f168201915b5050505050905090565b5f6105d782610e78565b506105e182610efe565b9050919050565b6105fa82826105f5610f37565b610f3e565b5050565b5f73ffffffffffffffffffffffffffffffffffffffff168273ffffffffffffffffffffffffffffffffffffffff160361066e575f6040517f64a0ae920000000000000000000000000000000000000000000000000000000081526004016106659190612139565b60405180910390fd5b5f610681838361067c610f37565b610f50565b90508373ffffffffffffffffffffffffffffffffffffffff168173ffffffffffffffffffffffffffffffffffffffff16146106f7578382826040517f64283d7b0000000000000000000000000000000000000000000000000000000081526004016106ee93929190612616565b60405180910390fd5b50505050565b61071783838360405180602001604052805f815250610afd565b505050565b5f61072682610e78565b9050919050565b5f8073ffffffffffffffffffffffffffffffffffffffff168273ffffffffffffffffffffffffffffffffffffffff160361079e575f6040517f89c62b640000000000000000000000000000000000000000000000000000000081526004016107959190612139565b60405180910390fd5b60035f8373ffffffffffffffffffffffffffffffffffffffff1673ffffffffffffffffffffffffffffffffffffffff1681526020019081526020015f20549050919050565b6107eb61115b565b6107f45f6111e2565b565b3373ffffffffffffffffffffffffffffffffffffffff1660095f8381526020019081526020015f206001015f9054906101000a900473ffffffffffffffffffffffffffffffffffffffff1673ffffffffffffffffffffffffffffffffffffffff1614610897576040517f08c379a000000000000000000000000000000000000000000000000000000000815260040161088e90612695565b60405180910390fd5b3460095f8381526020019081526020015f205f015411156108ed576040517f08c379a00000000000000000000000000000000000000000000000000000000081526004016108e4906126fd565b60405180910390fd5b6109006108f98261071c565b33836112a5565b5f3373ffffffffffffffffffffffffffffffffffffffff1660095f8481526020019081526020015f205f015460405161093890612748565b5f6040518083038185875af1925050503d805f8114610972576040519150601f19603f3d011682016040523d82523d5f602084013e610977565b606091505b505090505050565b5f60075f9054906101000a900473ffffffffffffffffffffffffffffffffffffffff16905090565b6060600180546109b6906125e6565b80601f01602080910402602001604051908101604052809291908181526020018280546109e2906125e6565b8015610a2d5780601f10610a0457610100808354040283529160200191610a2d565b820191905f5260205f20905b815481529060010190602001808311610a1057829003601f168201915b5050505050905090565b5f806008549050610a4f610a4961097f565b826112c4565b610a5981866113b7565b8260095f8381526020019081526020015f206001015f6101000a81548173ffffffffffffffffffffffffffffffffffffffff021916908373ffffffffffffffffffffffffffffffffffffffff1602179055508360095f8381526020019081526020015f205f0181905550600160085f828254610ad59190612789565b92505081905550809150509392505050565b610af9610af2610f37565b8383611411565b5050565b610b088484846105fe565b610b1c610b13610f37565b8585858561157a565b50505050565b5f60095f8381526020019081526020015f206001015f9054906101000a900473ffffffffffffffffffffffffffffffffffffffff169050919050565b6060610b6982610e78565b505f60065f8481526020019081526020015f208054610b87906125e6565b80601f0160208091040260200160405190810160405280929190818152602001828054610bb3906125e6565b8015610bfe5780601f10610bd557610100808354040283529160200191610bfe565b820191905f5260205f20905b815481529060010190602001808311610be157829003601f168201915b505050505090505f610c0e611726565b90505f815103610c22578192505050610c64565b5f82511115610c56578082604051602001610c3e9291906127f6565b60405160208183030381529060405292505050610c64565b610c5f8461173c565b925050505b919050565b5f60055f8473ffffffffffffffffffffffffffffffffffffffff1673ffffffffffffffffffffffffffffffffffffffff1681526020019081526020015f205f8373ffffffffffffffffffffffffffffffffffffffff1673ffffffffffffffffffffffffffffffffffffffff1681526020019081526020015f205f9054906101000a900460ff16905092915050565b610cff61115b565b5f73ffffffffffffffffffffffffffffffffffffffff168173ffffffffffffffffffffffffffffffffffffffff1603610d6f575f6040517f1e4fbdf7000000000000000000000000000000000000000000000000000000008152600401610d669190612139565b60405180910390fd5b610d78816111e2565b50565b5f60095f8381526020019081526020015f205f01549050919050565b5f7f80ac58cd000000000000000000000000000000000000000000000000000000007bffffffffffffffffffffffffffffffffffffffffffffffffffffffff1916827bffffffffffffffffffffffffffffffffffffffffffffffffffffffff19161480610e6157507f5b5e139f000000000000000000000000000000000000000000000000000000007bffffffffffffffffffffffffffffffffffffffffffffffffffffffff1916827bffffffffffffffffffffffffffffffffffffffffffffffffffffffff1916145b80610e715750610e70826117a2565b5b9050919050565b5f80610e838361180b565b90505f73ffffffffffffffffffffffffffffffffffffffff168173ffffffffffffffffffffffffffffffffffffffff1603610ef557826040517f7e273289000000000000000000000000000000000000000000000000000000008152600401610eec9190612244565b60405180910390fd5b80915050919050565b5f60045f8381526020019081526020015f205f9054906101000a900473ffffffffffffffffffffffffffffffffffffffff169050919050565b5f33905090565b610f4b8383836001611844565b505050565b5f80610f5b8461180b565b90505f73ffffffffffffffffffffffffffffffffffffffff168373ffffffffffffffffffffffffffffffffffffffff1614610f9c57610f9b818486611a03565b5b5f73ffffffffffffffffffffffffffffffffffffffff168173ffffffffffffffffffffffffffffffffffffffff161461102757610fdb5f855f80611844565b600160035f8373ffffffffffffffffffffffffffffffffffffffff1673ffffffffffffffffffffffffffffffffffffffff1681526020019081526020015f205f82825403925050819055505b5f73ffffffffffffffffffffffffffffffffffffffff168573ffffffffffffffffffffffffffffffffffffffff16146110a657600160035f8773ffffffffffffffffffffffffffffffffffffffff1673ffffffffffffffffffffffffffffffffffffffff1681526020019081526020015f205f82825401925050819055505b8460025f8681526020019081526020015f205f6101000a81548173ffffffffffffffffffffffffffffffffffffffff021916908373ffffffffffffffffffffffffffffffffffffffff160217905550838573ffffffffffffffffffffffffffffffffffffffff168273ffffffffffffffffffffffffffffffffffffffff167fddf252ad1be2c89b69c2b068fc378daa952ba7f163c4a11628f55a4df523b3ef60405160405180910390a4809150509392505050565b611163610f37565b73ffffffffffffffffffffffffffffffffffffffff1661118161097f565b73ffffffffffffffffffffffffffffffffffffffff16146111e0576111a4610f37565b6040517f118cdaa70000000000000000000000000000000000000000000000000000000081526004016111d79190612139565b60405180910390fd5b565b5f60075f9054906101000a900473ffffffffffffffffffffffffffffffffffffffff1690508160075f6101000a81548173ffffffffffffffffffffffffffffffffffffffff021916908373ffffffffffffffffffffffffffffffffffffffff1602179055508173ffffffffffffffffffffffffffffffffffffffff168173ffffffffffffffffffffffffffffffffffffffff167f8be0079c531659141344cd1fd0a4f28419497f9722a3daafe3b4186f6b6457e060405160405180910390a35050565b6112bf83838360405180602001604052805f815250611ac6565b505050565b5f73ffffffffffffffffffffffffffffffffffffffff168273ffffffffffffffffffffffffffffffffffffffff1603611334575f6040517f64a0ae9200000000000000000000000000000000000000000000000000000000815260040161132b9190612139565b60405180910390fd5b5f61134083835f610f50565b90505f73ffffffffffffffffffffffffffffffffffffffff168173ffffffffffffffffffffffffffffffffffffffff16146113b2575f6040517f73c6ac6e0000000000000000000000000000000000000000000000000000000081526004016113a99190612139565b60405180910390fd5b505050565b8060065f8481526020019081526020015f2090816113d591906129b6565b507ff8e1a15aba9398e019f0b49df1a4fde98ee17ae345cb5f6b5e2c27f5033e8ce7826040516114059190612244565b60405180910390a15050565b5f73ffffffffffffffffffffffffffffffffffffffff168273ffffffffffffffffffffffffffffffffffffffff160361148157816040517f5b08ba180000000000000000000000000000000000000000000000000000000081526004016114789190612139565b60405180910390fd5b8060055f8573ffffffffffffffffffffffffffffffffffffffff1673ffffffffffffffffffffffffffffffffffffffff1681526020019081526020015f205f8473ffffffffffffffffffffffffffffffffffffffff1673ffffffffffffffffffffffffffffffffffffffff1681526020019081526020015f205f6101000a81548160ff0219169083151502179055508173ffffffffffffffffffffffffffffffffffffffff168373ffffffffffffffffffffffffffffffffffffffff167f17307eab39ab6107e8899845ad3d59bd9653f200f220920489ca2b5937696c318360405161156d9190611fd9565b60405180910390a3505050565b5f8373ffffffffffffffffffffffffffffffffffffffff163b111561171f578273ffffffffffffffffffffffffffffffffffffffff1663150b7a02868685856040518563ffffffff1660e01b81526004016115d89493929190612ad7565b6020604051808303815f875af192505050801561161357506040513d601f19601f820116820180604052508101906116109190612b35565b60015b611694573d805f8114611641576040519150601f19603f3d011682016040523d82523d5f602084013e611646565b606091505b505f81510361168c57836040517f64a0ae920000000000000000000000000000000000000000000000000000000081526004016116839190612139565b60405180910390fd5b805181602001fd5b63150b7a0260e01b7bffffffffffffffffffffffffffffffffffffffffffffffffffffffff1916817bffffffffffffffffffffffffffffffffffffffffffffffffffffffff19161461171d57836040517f64a0ae920000000000000000000000000000000000000000000000000000000081526004016117149190612139565b60405180910390fd5b505b5050505050565b606060405180602001604052805f815250905090565b606061174782610e78565b505f611751611726565b90505f81511161176f5760405180602001604052805f81525061179a565b8061177984611aeb565b60405160200161178a9291906127f6565b6040516020818303038152906040525b915050919050565b5f7f01ffc9a7000000000000000000000000000000000000000000000000000000007bffffffffffffffffffffffffffffffffffffffffffffffffffffffff1916827bffffffffffffffffffffffffffffffffffffffffffffffffffffffff1916149050919050565b5f60025f8381526020019081526020015f205f9054906101000a900473ffffffffffffffffffffffffffffffffffffffff169050919050565b808061187c57505f73ffffffffffffffffffffffffffffffffffffffff168273ffffffffffffffffffffffffffffffffffffffff1614155b156119ae575f61188b84610e78565b90505f73ffffffffffffffffffffffffffffffffffffffff168373ffffffffffffffffffffffffffffffffffffffff16141580156118f557508273ffffffffffffffffffffffffffffffffffffffff168173ffffffffffffffffffffffffffffffffffffffff1614155b801561190857506119068184610c69565b155b1561194a57826040517fa9fbf51f0000000000000000000000000000000000000000000000000000000081526004016119419190612139565b60405180910390fd5b81156119ac57838573ffffffffffffffffffffffffffffffffffffffff168273ffffffffffffffffffffffffffffffffffffffff167f8c5be1e5ebec7d5bd14f71427d1e84f3dd0314c0f7b2291e5b200ac8c7c3b92560405160405180910390a45b505b8360045f8581526020019081526020015f205f6101000a81548173ffffffffffffffffffffffffffffffffffffffff021916908373ffffffffffffffffffffffffffffffffffffffff16021790555050505050565b611a0e838383611bb5565b611ac1575f73ffffffffffffffffffffffffffffffffffffffff168373ffffffffffffffffffffffffffffffffffffffff1603611a8257806040517f7e273289000000000000000000000000000000000000000000000000000000008152600401611a799190612244565b60405180910390fd5b81816040517f177e802f000000000000000000000000000000000000000000000000000000008152600401611ab8929190612b60565b60405180910390fd5b505050565b611ad1848484611c75565b611ae5611adc610f37565b8585858561157a565b50505050565b60605f6001611af984611ddd565b0190505f8167ffffffffffffffff811115611b1757611b16612265565b5b6040519080825280601f01601f191660200182016040528015611b495781602001600182028036833780820191505090505b5090505f82602001820190505b600115611baa578080600190039150507f3031323334353637383961626364656600000000000000000000000000000000600a86061a8153600a8581611b9f57611b9e612b87565b5b0494505f8503611b56575b819350505050919050565b5f8073ffffffffffffffffffffffffffffffffffffffff168373ffffffffffffffffffffffffffffffffffffffff1614158015611c6c57508273ffffffffffffffffffffffffffffffffffffffff168473ffffffffffffffffffffffffffffffffffffffff161480611c2d5750611c2c8484610c69565b5b80611c6b57508273ffffffffffffffffffffffffffffffffffffffff16611c5383610efe565b73ffffffffffffffffffffffffffffffffffffffff16145b5b90509392505050565b5f73ffffffffffffffffffffffffffffffffffffffff168273ffffffffffffffffffffffffffffffffffffffff1603611ce5575f6040517f64a0ae92000000000000000000000000000000000000000000000000000000008152600401611cdc9190612139565b60405180910390fd5b5f611cf183835f610f50565b90505f73ffffffffffffffffffffffffffffffffffffffff168173ffffffffffffffffffffffffffffffffffffffff1603611d6357816040517f7e273289000000000000000000000000000000000000000000000000000000008152600401611d5a9190612244565b60405180910390fd5b8373ffffffffffffffffffffffffffffffffffffffff168173ffffffffffffffffffffffffffffffffffffffff1614611dd7578382826040517f64283d7b000000000000000000000000000000000000000000000000000000008152600401611dce93929190612616565b60405180910390fd5b50505050565b5f805f90507a184f03e93ff9f4daa797ed6e38ed64bf6a1f0100000000000000008310611e39577a184f03e93ff9f4daa797ed6e38ed64bf6a1f0100000000000000008381611e2f57611e2e612b87565b5b0492506040810190505b6d04ee2d6d415b85acef81000000008310611e76576d04ee2d6d415b85acef81000000008381611e6c57611e6b612b87565b5b0492506020810190505b662386f26fc100008310611ea557662386f26fc100008381611e9b57611e9a612b87565b5b0492506010810190505b6305f5e1008310611ece576305f5e1008381611ec457611ec3612b87565b5b0492506008810190505b6127108310611ef3576127108381611ee957611ee8612b87565b5b0492506004810190505b60648310611f165760648381611f0c57611f0b612b87565b5b0492506002810190505b600a8310611f25576001810190505b80915050919050565b5f604051905090565b5f80fd5b5f80fd5b5f7fffffffff0000000000000000000000000000000000000000000000000000000082169050919050565b611f7381611f3f565b8114611f7d575f80fd5b50565b5f81359050611f8e81611f6a565b92915050565b5f60208284031215611fa957611fa8611f37565b5b5f611fb684828501611f80565b91505092915050565b5f8115159050919050565b611fd381611fbf565b82525050565b5f602082019050611fec5f830184611fca565b92915050565b5f81519050919050565b5f82825260208201905092915050565b5f5b8381101561202957808201518184015260208101905061200e565b5f8484015250505050565b5f601f19601f8301169050919050565b5f61204e82611ff2565b6120588185611ffc565b935061206881856020860161200c565b61207181612034565b840191505092915050565b5f6020820190508181035f8301526120948184612044565b905092915050565b5f819050919050565b6120ae8161209c565b81146120b8575f80fd5b50565b5f813590506120c9816120a5565b92915050565b5f602082840312156120e4576120e3611f37565b5b5f6120f1848285016120bb565b91505092915050565b5f73ffffffffffffffffffffffffffffffffffffffff82169050919050565b5f612123826120fa565b9050919050565b61213381612119565b82525050565b5f60208201905061214c5f83018461212a565b92915050565b61215b81612119565b8114612165575f80fd5b50565b5f8135905061217681612152565b92915050565b5f806040838503121561219257612191611f37565b5b5f61219f85828601612168565b92505060206121b0858286016120bb565b9150509250929050565b5f805f606084860312156121d1576121d0611f37565b5b5f6121de86828701612168565b93505060206121ef86828701612168565b9250506040612200868287016120bb565b9150509250925092565b5f6020828403121561221f5761221e611f37565b5b5f61222c84828501612168565b91505092915050565b61223e8161209c565b82525050565b5f6020820190506122575f830184612235565b92915050565b5f80fd5b5f80fd5b7f4e487b71000000000000000000000000000000000000000000000000000000005f52604160045260245ffd5b61229b82612034565b810181811067ffffffffffffffff821117156122ba576122b9612265565b5b80604052505050565b5f6122cc611f2e565b90506122d88282612292565b919050565b5f67ffffffffffffffff8211156122f7576122f6612265565b5b61230082612034565b9050602081019050919050565b828183375f83830152505050565b5f61232d612328846122dd565b6122c3565b90508281526020810184848401111561234957612348612261565b5b61235484828561230d565b509392505050565b5f82601f8301126123705761236f61225d565b5b813561238084826020860161231b565b91505092915050565b5f805f606084860312156123a05761239f611f37565b5b5f84013567ffffffffffffffff8111156123bd576123bc611f3b565b5b6123c98682870161235c565b93505060206123da868287016120bb565b92505060406123eb86828701612168565b9150509250925092565b6123fe81611fbf565b8114612408575f80fd5b50565b5f81359050612419816123f5565b92915050565b5f806040838503121561243557612434611f37565b5b5f61244285828601612168565b92505060206124538582860161240b565b9150509250929050565b5f67ffffffffffffffff82111561247757612476612265565b5b61248082612034565b9050602081019050919050565b5f61249f61249a8461245d565b6122c3565b9050828152602081018484840111156124bb576124ba612261565b5b6124c684828561230d565b509392505050565b5f82601f8301126124e2576124e161225d565b5b81356124f284826020860161248d565b91505092915050565b5f805f806080858703121561251357612512611f37565b5b5f61252087828801612168565b945050602061253187828801612168565b9350506040612542878288016120bb565b925050606085013567ffffffffffffffff81111561256357612562611f3b565b5b61256f878288016124ce565b91505092959194509250565b5f806040838503121561259157612590611f37565b5b5f61259e85828601612168565b92505060206125af85828601612168565b9150509250929050565b7f4e487b71000000000000000000000000000000000000000000000000000000005f52602260045260245ffd5b5f60028204905060018216806125fd57607f821691505b6020821081036126105761260f6125b9565b5b50919050565b5f6060820190506126295f83018661212a565b6126366020830185612235565b612643604083018461212a565b949350505050565b7f73656e646572206973206e6f742070617469656e7400000000000000000000005f82015250565b5f61267f601583611ffc565b915061268a8261264b565b602082019050919050565b5f6020820190508181035f8301526126ac81612673565b9050919050565b7f616d6f756e7420697320696e76616c69640000000000000000000000000000005f82015250565b5f6126e7601183611ffc565b91506126f2826126b3565b602082019050919050565b5f6020820190508181035f830152612714816126db565b9050919050565b5f81905092915050565b50565b5f6127335f8361271b565b915061273e82612725565b5f82019050919050565b5f61275282612728565b9150819050919050565b7f4e487b71000000000000000000000000000000000000000000000000000000005f52601160045260245ffd5b5f6127938261209c565b915061279e8361209c565b92508282019050808211156127b6576127b561275c565b5b92915050565b5f81905092915050565b5f6127d082611ff2565b6127da81856127bc565b93506127ea81856020860161200c565b80840191505092915050565b5f61280182856127c6565b915061280d82846127c6565b91508190509392505050565b5f819050815f5260205f209050919050565b5f6020601f8301049050919050565b5f82821b905092915050565b5f600883026128757fffffffffffffffffffffffffffffffffffffffffffffffffffffffffffffffff8261283a565b61287f868361283a565b95508019841693508086168417925050509392505050565b5f819050919050565b5f6128ba6128b56128b08461209c565b612897565b61209c565b9050919050565b5f819050919050565b6128d3836128a0565b6128e76128df826128c1565b848454612846565b825550505050565b5f90565b6128fb6128ef565b6129068184846128ca565b505050565b5b818110156129295761291e5f826128f3565b60018101905061290c565b5050565b601f82111561296e5761293f81612819565b6129488461282b565b81016020851015612957578190505b61296b6129638561282b565b83018261290b565b50505b505050565b5f82821c905092915050565b5f61298e5f1984600802612973565b1980831691505092915050565b5f6129a6838361297f565b9150826002028217905092915050565b6129bf82611ff2565b67ffffffffffffffff8111156129d8576129d7612265565b5b6129e282546125e6565b6129ed82828561292d565b5f60209050601f831160018114612a1e575f8415612a0c578287015190505b612a16858261299b565b865550612a7d565b601f198416612a2c86612819565b5f5b82811015612a5357848901518255600182019150602085019450602081019050612a2e565b86831015612a705784890151612a6c601f89168261297f565b8355505b6001600288020188555050505b505050505050565b5f81519050919050565b5f82825260208201905092915050565b5f612aa982612a85565b612ab38185612a8f565b9350612ac381856020860161200c565b612acc81612034565b840191505092915050565b5f608082019050612aea5f83018761212a565b612af7602083018661212a565b612b046040830185612235565b8181036060830152612b168184612a9f565b905095945050505050565b5f81519050612b2f81611f6a565b92915050565b5f60208284031215612b4a57612b49611f37565b5b5f612b5784828501612b21565b91505092915050565b5f604082019050612b735f83018561212a565b612b806020830184612235565b9392505050565b7f4e487b71000000000000000000000000000000000000000000000000000000005f52601260045260245ffdfea26469706673582212202f9b8cd9f4c8d2f37966eb76f7497ebae211869e8882ce553d806e3240f5354164736f6c63430008140033",
  "immutableReferences": {},
  "source": "// SPDX-License-Identifier: GPL-3.0\npragma solidity 0.8.20;\n\nimport \"@openzeppelin/contracts/token/ERC721/extensions/ERC721URIStorage.sol\";\nimport \"@openzeppelin/contracts/access/Ownable.sol\";\n\ncontract FactoryDMed is Ownable {\n    mapping(uint => address) allContracts; \n    uint current = 0;\n    \n    constructor() Ownable(msg.sender){\n        \n    }\n\n    function createNFTContract(string memory name, string memory symbol) public onlyOwner returns(address){\n        address newContract = address(new NFT(name, symbol));\n        allContracts[current] = newContract;\n        current++;\n        return address(newContract);\n    }\n\n    function getContract(uint index) public onlyOwner view returns(address) {\n        require(index >= 0 && index < current, \"index out of bound\");\n        return allContracts[index];\n    }\n}\n\ncontract NFT is ERC721URIStorage, Ownable {\n\n    struct prescription {\n        uint cost;\n        address patient;\n    }\n\n    uint256 private _tokenId;\n    mapping(uint => prescription) private prescriptionMap;\n    \n    constructor (string memory name, string memory symbol) ERC721(name, symbol) Ownable(msg.sender){\n        _tokenId = 0;\n    }\n\n\n    function generatePrescription(string memory tokenURI, uint cost, address patient) public returns(uint256) {\n        uint256 newTokenId = _tokenId;\n        _mint(owner(), newTokenId);\n        _setTokenURI(newTokenId, tokenURI);\n        prescriptionMap[newTokenId].patient = patient;\n        prescriptionMap[newTokenId].cost = cost;\n        _tokenId += 1;\n        return newTokenId;\n    }\n\n    function costOf(uint tokenId) public view returns(uint256) {\n        return prescriptionMap[tokenId].cost;\n    }\n\n    function patientOf(uint tokenId) public view returns(address) {\n        return prescriptionMap[tokenId].patient;\n    }\n\n    function transferPrescription(uint tokenId) public payable {\n        require(prescriptionMap[tokenId].patient == msg.sender, \"sender is not patient\");\n        require(prescriptionMap[tokenId].cost <= msg.value, \"amount is invalid\");\n        _safeTransfer(ownerOf(tokenId), msg.sender , tokenId);\n        (bool send,) = address(msg.sender).call{value: prescriptionMap[tokenId].cost}(\"\");\n    }\n\n}",
  "sourcePath": "/Users/anas/Desktop/Projects/NFT/dMed-contracts/contracts/DMed.sol",
  "compiler": {
    "name": "solc",
    "version": "0.8.20+commit.a1b79de6.Emscripten.clang"
  },
  "schemaVersion": "3.4.16",
  "updatedAt": "2025-01-16T12:26:08.135Z",
  "devdoc": {
    "errors": {
      "ERC721IncorrectOwner(address,uint256,address)": [
        {
          "details": "Indicates an error related to the ownership over a particular token. Used in transfers.",
          "params": {
            "owner": "Address of the current owner of a token.",
            "sender": "Address whose tokens are being transferred.",
            "tokenId": "Identifier number of a token."
          }
        }
      ],
      "ERC721InsufficientApproval(address,uint256)": [
        {
          "details": "Indicates a failure with the `operator`s approval. Used in transfers.",
          "params": {
            "operator": "Address that may be allowed to operate on tokens without being their owner.",
            "tokenId": "Identifier number of a token."
          }
        }
      ],
      "ERC721InvalidApprover(address)": [
        {
          "details": "Indicates a failure with the `approver` of a token to be approved. Used in approvals.",
          "params": {
            "approver": "Address initiating an approval operation."
          }
        }
      ],
      "ERC721InvalidOperator(address)": [
        {
          "details": "Indicates a failure with the `operator` to be approved. Used in approvals.",
          "params": {
            "operator": "Address that may be allowed to operate on tokens without being their owner."
          }
        }
      ],
      "ERC721InvalidOwner(address)": [
        {
          "details": "Indicates that an address can't be an owner. For example, `address(0)` is a forbidden owner in ERC-20. Used in balance queries.",
          "params": {
            "owner": "Address of the current owner of a token."
          }
        }
      ],
      "ERC721InvalidReceiver(address)": [
        {
          "details": "Indicates a failure with the token `receiver`. Used in transfers.",
          "params": {
            "receiver": "Address to which tokens are being transferred."
          }
        }
      ],
      "ERC721InvalidSender(address)": [
        {
          "details": "Indicates a failure with the token `sender`. Used in transfers.",
          "params": {
            "sender": "Address whose tokens are being transferred."
          }
        }
      ],
      "ERC721NonexistentToken(uint256)": [
        {
          "details": "Indicates a `tokenId` whose `owner` is the zero address.",
          "params": {
            "tokenId": "Identifier number of a token."
          }
        }
      ],
      "OwnableInvalidOwner(address)": [
        {
          "details": "The owner is not a valid owner account. (eg. `address(0)`)"
        }
      ],
      "OwnableUnauthorizedAccount(address)": [
        {
          "details": "The caller account is not authorized to perform an operation."
        }
      ]
    },
    "events": {
      "Approval(address,address,uint256)": {
        "details": "Emitted when `owner` enables `approved` to manage the `tokenId` token."
      },
      "ApprovalForAll(address,address,bool)": {
        "details": "Emitted when `owner` enables or disables (`approved`) `operator` to manage all of its assets."
      },
      "BatchMetadataUpdate(uint256,uint256)": {
        "details": "This event emits when the metadata of a range of tokens is changed. So that the third-party platforms such as NFT market could timely update the images and related attributes of the NFTs."
      },
      "MetadataUpdate(uint256)": {
        "details": "This event emits when the metadata of a token is changed. So that the third-party platforms such as NFT market could timely update the images and related attributes of the NFT."
      },
      "Transfer(address,address,uint256)": {
        "details": "Emitted when `tokenId` token is transferred from `from` to `to`."
      }
    },
    "kind": "dev",
    "methods": {
      "approve(address,uint256)": {
        "details": "See {IERC721-approve}."
      },
      "balanceOf(address)": {
        "details": "See {IERC721-balanceOf}."
      },
      "getApproved(uint256)": {
        "details": "See {IERC721-getApproved}."
      },
      "isApprovedForAll(address,address)": {
        "details": "See {IERC721-isApprovedForAll}."
      },
      "name()": {
        "details": "See {IERC721Metadata-name}."
      },
      "owner()": {
        "details": "Returns the address of the current owner."
      },
      "ownerOf(uint256)": {
        "details": "See {IERC721-ownerOf}."
      },
      "renounceOwnership()": {
        "details": "Leaves the contract without owner. It will not be possible to call `onlyOwner` functions. Can only be called by the current owner. NOTE: Renouncing ownership will leave the contract without an owner, thereby disabling any functionality that is only available to the owner."
      },
      "safeTransferFrom(address,address,uint256)": {
        "details": "See {IERC721-safeTransferFrom}."
      },
      "safeTransferFrom(address,address,uint256,bytes)": {
        "details": "See {IERC721-safeTransferFrom}."
      },
      "setApprovalForAll(address,bool)": {
        "details": "See {IERC721-setApprovalForAll}."
      },
      "supportsInterface(bytes4)": {
        "details": "See {IERC165-supportsInterface}"
      },
      "symbol()": {
        "details": "See {IERC721Metadata-symbol}."
      },
      "tokenURI(uint256)": {
        "details": "See {IERC721Metadata-tokenURI}."
      },
      "transferFrom(address,address,uint256)": {
        "details": "See {IERC721-transferFrom}."
      },
      "transferOwnership(address)": {
        "details": "Transfers ownership of the contract to a new account (`newOwner`). Can only be called by the current owner."
      }
    },
    "version": 1
  },
  "userdoc": {
    "kind": "user",
    "methods": {},
    "version": 1
  }
}